:020000040800F2
:1000000000000120C103000847020008690200083F
:100010006B0200086D0200086F020008000000007B
:100020000000000000000000000000007102000855
:100030007302000800000000750200087702000843
:10004000110400081104000811040008110400083C
:1000500011040008790200081104000811040008C6
:10006000110400081104000811040008110400081C
:10007000110400081104000811040008110400080C
:100080001104000811040008110400080000000019
:100090000000000000000000000000001104000843
:1000A00011040008110400081104000811040008DC
:1000B00011040008110400081104000811040008CC
:1000C00011040008110400081104000811040008BC
:1000D00011040008110400081104000800000000C9
:1000E00011040008110400081104000800000000B9
:1000F00000000000000000000000000011040008E3
:100100000000000011040008110400081104000898
:1001100000000000000000000000000000000000DF
:10012000110400081104000811040008110400085B
:1001300011040008000000000000000000000000A2
:100140000000000000000000000000001104000892
:10015000110400081104000811040008110400082B
:100160001104000811040008000000000000000055
:10017000000000000000000000000000000000007F
:100180000000000011040008000000000000000052
:04019000110400084E
:1001940010B5054C237833B9044B13B10448AFF3BD
:1001A40000800123237010BD000000200000000027
:1001B4009808000808B5034B1BB103490348AFF383
:1001C400008008BD0000000004000020980800081A
:1001D40082B00190019B5A1E0192002BFAD102B009
:1001E4007047000000B583B00121042000F070FACC
:1001F40001238DF8043000238DF806308DF8073084
:100204008DF805304FF40053009369460A4800F016
:10021400FFF8094D4FF40051284600F09BF9074CB4
:100224002046FFF7D5FF4FF40051284600F0D2F9DD
:100234002046FFF7CDFFECE700080240FFFF0F0068
:10024400704708B5802000F0CDFA00B908BD012040
:1002540000F000FA0121182000F060FA802000F07C
:10026400E5FAF3E7FEE7FEE7FEE7FEE770477047CF
:100274007047704708B5082000F0B4FA20B9102080
:1002840000F0B0FA60B908BD082000F0CFFA3120C0
:1002940000F068FA0028F2D0012000F0F1F9EEE74E
:1002A400102000F0C3FA392000F05CFA0028EAD0EC
:1002B400022000F0F7F9E6E782B0002301930093EF
:1002C400294A136843F480331360274B1B6803F4F3
:1002D40000330093019B01330193009B1BB9019BE5
:1002E400B3F5A04FF1D1204B1B6813F4003F06D0A7
:1002F40001230093009B012B04D002B0704700231C
:100304000093F7E7184B1A6C42F080521A641749AD
:100314000A6842F440420A609A689A609A689A604D
:100324009A6842F480529A60114A5A601A6842F0FC
:1003340080721A600C4B1B6813F0007FFAD00D4BCF
:1003440040F202721A60A3F580639A6822F00302F5
:100354009A609A6842F002029A60034B9B6803F029
:100364000C03082BF9D1C8E70038024000700040A4
:1003740019544107003C024008B50D4B1A6842F07D
:1003840001021A60002199601A6822F0847222F432
:1003940080321A60074A5A601A6822F480221A606E
:1003A400D960FFF789FF044B4FF000629A6008BDE3
:1003B400003802401030002400ED00E0DFF834D0B3
:1003C400002103E00C4B5B58435004310B480C4BA9
:1003D40042189A42F6D30B4A02E0002342F8043B47
:1003E400094B9A42F9D3FFF7C7FF00F02FFAFFF742
:1003F400F9FE7047000001203409000800000020C5
:1004040000000020000000201C000020FEE7000087
:100414002DE9F04105460E464C4B98422BD003F58E
:100424008063984227D003F58063984223D003F574
:10043400806398421FD003F5806398421BD003F574
:100444008063984217D003F58063984213D003F574
:10045400806398420FD003F5806398420BD003F574
:100464008063984207D003F58063984203D0CF217C
:100474003748FFF7E5FE33883BB13379032B09D8BE
:10048400F379022B0BD800242FE0D0213048FFF75A
:10049400D7FEF2E7D1212E48FFF7D2FEF0E7D221B2
:1004A4002B48FFF7CDFEEEE7E4212948FFF7C8FE0D
:1004B40038E06A68A0B20121814022EA01026A6040
:1004C4006A68B37983409BB213436B60EB68A2B252
:1004D400510003228A4023EA0203EB60EB68F279BD
:1004E40002FA07F71F43EF6001340F2C2BD80123C6
:1004F400A34032689343F7D12A6867000323BB40C3
:100504006FEA030822EA03032B602B683279BA40AE
:1005140013432B603379013BDBB2012BD6D87379BB
:10052400032BC1D8AB6808EA0303AB60AB687279EC
:10053400BA401343AB60B379012BBAD9EB21044819
:10054400FFF77EFEB5E7BDE8F08100BF0000024082
:10055400B008000838B504460D461C4B98422CD010
:1005640003F58063984228D003F58063984224D031
:1005740003F58063984220D003F5806398421CD031
:1005840003F58063984218D003F58063984214D031
:1005940003F58063984210D003F5806398420CD031
:1005A40003F58063984208D003F58063984204D031
:1005B40040F29F110648FFF743FE0DB1258338BD75
:1005C4004FF4D0710248FFF73BFEF7E7000002400A
:1005D400B008000838B504460D461C4B98422CD090
:1005E40003F58063984228D003F58063984224D0B1
:1005F40003F58063984220D003F5806398421CD0B1
:1006040003F58063984218D003F58063984214D0B0
:1006140003F58063984210D003F5806398420CD0B0
:1006240003F58063984208D003F58063984204D0B0
:100634004FF4DA710648FFF703FE0DB1658338BD48
:1006440040F2B5110248FFF7FBFDF7E70000024056
:10065400B008000810B50446012801D9052804D1C2
:10066400054B00229A709C7010BD40F21F11034884
:10067400FFF7E6FDF4E700BF00380240F008000889
:1006840010B50446012802D8044B1C6610BD40F284
:1006940036210348FFF7D4FDF6E700BF00004742C8
:1006A400F008000810B50446022806D8064B9868DE
:1006B40020F0030004439C6010BD40F282410348D3
:1006C400FFF7BEFDF2E700BF00380240F008000863
:1006D40038B504460D460E4B184200D120B940F6F9
:1006E4003B010C48FFF7ACFD012D05D855B10A4B71
:1006F400186B04431C6338BD40F63D010548FFF701
:100704009FFDF3E7044B186B20EA04041C63F2E733
:1007140000E80B01F00800080038024038B5044630
:100724000D4643B2002B07DD012D0BD885B10B4BD1
:10073400587B04435C7338BD40F6D9310848FFF751
:100744007FFDF1E740F6DA310548FFF779FDEDE783
:10075400024B587B20EA04045C73ECE70038024047
:10076400F008000810B50446212819D0312817D004
:10077400392815D0412813D0612811D079280FD0F9
:100784007A280DD07B280BD07C2809D07D2807D06F
:100794007E2805D07F2803D03B2801D03D280FD1E7
:1007A4006309012B12D0022B13D00C4B586F04F0A9
:1007B4001F0420FA04F414F0010F0DD0012010BD21
:1007C40040F602410648FFF73BFDE9E7034B186892
:1007D400EDE7024B186FEAE70020F0E7003802402B
:1007E400F008000810B50446431EDBB2012B0BD9F8
:1007F400042809D0082807D0102805D0802803D061
:10080400402801D0202805D1064BDB681C4207D0C4
:10081400012010BD40F641410348FFF711FDF3E705
:100824000020F6E700380240F008000810B504463E
:1008340010B1044B9C7310BD40F661410248FFF7B0
:10084400FFFCF6E700380240F008000870B50D4DD3
:100854000D4C641BA4100026A64209D10B4D0C4C70
:1008640000F018F8641BA4100026A64205D170BD40
:1008740055F8043B98470136EEE755F8043B984792
:100884000136F2E72C0900082C0900082C0900089D
:1008940030090008F8B500BFF8BC08BC9E46704794
:0C08A400F8B500BFF8BC08BC9E467047C9
:1008B0002E2E2F4C69627261726965732F53544DED
:1008C0003332463478785F53746450657269706867
:1008D0005F4472697665722F7372632F73746D3320
:1008E00032663478785F6770696F2E6300000000AD
:1008F0002E2E2F4C69627261726965732F53544DAD
:100900003332463478785F53746450657269706826
:100910005F4472697665722F7372632F73746D33DF
:0C09200032663478785F7263632E6300E7
:04092C00B901000805
:040930009501000825
:04000005080003C12B
:00000001FF
